{
  "_format": "hh-sol-artifact-1",
  "contractName": "Unramp",
  "sourceName": "contracts/Unramp.sol",
  "abi": [
    {
      "inputs": [],
      "stateMutability": "nonpayable",
      "type": "constructor"
    },
    {
      "anonymous": false,
      "inputs": [
        {
          "indexed": false,
          "internalType": "address",
          "name": "previousAdmin",
          "type": "address"
        },
        {
          "indexed": false,
          "internalType": "address",
          "name": "newAdmin",
          "type": "address"
        }
      ],
      "name": "AdminChanged",
      "type": "event"
    },
    {
      "anonymous": false,
      "inputs": [
        {
          "indexed": true,
          "internalType": "address",
          "name": "beacon",
          "type": "address"
        }
      ],
      "name": "BeaconUpgraded",
      "type": "event"
    },
    {
      "anonymous": false,
      "inputs": [
        {
          "indexed": false,
          "internalType": "uint8",
          "name": "version",
          "type": "uint8"
        }
      ],
      "name": "Initialized",
      "type": "event"
    },
    {
      "anonymous": false,
      "inputs": [
        {
          "indexed": true,
          "internalType": "address",
          "name": "previousOwner",
          "type": "address"
        },
        {
          "indexed": true,
          "internalType": "address",
          "name": "newOwner",
          "type": "address"
        }
      ],
      "name": "OwnershipTransferred",
      "type": "event"
    },
    {
      "anonymous": false,
      "inputs": [
        {
          "indexed": true,
          "internalType": "address",
          "name": "implementation",
          "type": "address"
        }
      ],
      "name": "Upgraded",
      "type": "event"
    },
    {
      "inputs": [],
      "name": "_Id",
      "outputs": [
        {
          "internalType": "uint256",
          "name": "_value",
          "type": "uint256"
        }
      ],
      "stateMutability": "view",
      "type": "function"
    },
    {
      "inputs": [],
      "name": "_orderId",
      "outputs": [
        {
          "internalType": "uint256",
          "name": "_value",
          "type": "uint256"
        }
      ],
      "stateMutability": "view",
      "type": "function"
    },
    {
      "inputs": [
        {
          "internalType": "uint256",
          "name": "orderId",
          "type": "uint256"
        }
      ],
      "name": "acceptOrderFromMaker",
      "outputs": [],
      "stateMutability": "nonpayable",
      "type": "function"
    },
    {
      "inputs": [
        {
          "internalType": "uint256",
          "name": "_postId",
          "type": "uint256"
        },
        {
          "internalType": "uint256",
          "name": "_amount",
          "type": "uint256"
        }
      ],
      "name": "createOrder",
      "outputs": [],
      "stateMutability": "nonpayable",
      "type": "function"
    },
    {
      "inputs": [
        {
          "internalType": "address",
          "name": "token",
          "type": "address"
        },
        {
          "internalType": "string",
          "name": "fiat",
          "type": "string"
        },
        {
          "internalType": "uint256",
          "name": "rate",
          "type": "uint256"
        },
        {
          "internalType": "uint256",
          "name": "supply",
          "type": "uint256"
        },
        {
          "internalType": "string",
          "name": "paymentMethods",
          "type": "string"
        }
      ],
      "name": "createPost",
      "outputs": [],
      "stateMutability": "nonpayable",
      "type": "function"
    },
    {
      "inputs": [
        {
          "internalType": "address",
          "name": "",
          "type": "address"
        },
        {
          "internalType": "uint256",
          "name": "",
          "type": "uint256"
        }
      ],
      "name": "creatorToPost",
      "outputs": [
        {
          "internalType": "uint256",
          "name": "",
          "type": "uint256"
        }
      ],
      "stateMutability": "view",
      "type": "function"
    },
    {
      "inputs": [
        {
          "internalType": "uint256",
          "name": "orderId",
          "type": "uint256"
        }
      ],
      "name": "finalAcceptFromOrderCreator",
      "outputs": [],
      "stateMutability": "nonpayable",
      "type": "function"
    },
    {
      "inputs": [
        {
          "internalType": "uint256",
          "name": "",
          "type": "uint256"
        }
      ],
      "name": "idToOrder",
      "outputs": [
        {
          "internalType": "address",
          "name": "creator",
          "type": "address"
        },
        {
          "internalType": "uint256",
          "name": "postId",
          "type": "uint256"
        },
        {
          "internalType": "uint256",
          "name": "amout",
          "type": "uint256"
        },
        {
          "internalType": "uint256",
          "name": "state",
          "type": "uint256"
        }
      ],
      "stateMutability": "view",
      "type": "function"
    },
    {
      "inputs": [
        {
          "internalType": "uint256",
          "name": "",
          "type": "uint256"
        }
      ],
      "name": "idToPost",
      "outputs": [
        {
          "internalType": "address",
          "name": "creator",
          "type": "address"
        },
        {
          "internalType": "address",
          "name": "token",
          "type": "address"
        },
        {
          "internalType": "string",
          "name": "fiat",
          "type": "string"
        },
        {
          "internalType": "uint256",
          "name": "rate",
          "type": "uint256"
        },
        {
          "internalType": "uint256",
          "name": "supply",
          "type": "uint256"
        },
        {
          "internalType": "string",
          "name": "paymentMethods",
          "type": "string"
        }
      ],
      "stateMutability": "view",
      "type": "function"
    },
    {
      "inputs": [],
      "name": "initialize",
      "outputs": [],
      "stateMutability": "nonpayable",
      "type": "function"
    },
    {
      "inputs": [
        {
          "internalType": "address",
          "name": "",
          "type": "address"
        },
        {
          "internalType": "uint256",
          "name": "",
          "type": "uint256"
        }
      ],
      "name": "makerCreatorToOrdersId",
      "outputs": [
        {
          "internalType": "uint256",
          "name": "",
          "type": "uint256"
        }
      ],
      "stateMutability": "view",
      "type": "function"
    },
    {
      "inputs": [
        {
          "internalType": "address",
          "name": "",
          "type": "address"
        },
        {
          "internalType": "uint256",
          "name": "",
          "type": "uint256"
        }
      ],
      "name": "ordersPerUser",
      "outputs": [
        {
          "internalType": "uint256",
          "name": "",
          "type": "uint256"
        }
      ],
      "stateMutability": "view",
      "type": "function"
    },
    {
      "inputs": [],
      "name": "owner",
      "outputs": [
        {
          "internalType": "address",
          "name": "",
          "type": "address"
        }
      ],
      "stateMutability": "view",
      "type": "function"
    },
    {
      "inputs": [],
      "name": "proxiableUUID",
      "outputs": [
        {
          "internalType": "bytes32",
          "name": "",
          "type": "bytes32"
        }
      ],
      "stateMutability": "view",
      "type": "function"
    },
    {
      "inputs": [],
      "name": "renounceOwnership",
      "outputs": [],
      "stateMutability": "nonpayable",
      "type": "function"
    },
    {
      "inputs": [
        {
          "internalType": "address",
          "name": "sender",
          "type": "address"
        }
      ],
      "name": "returnLengthMakerOrders",
      "outputs": [
        {
          "internalType": "uint256",
          "name": "",
          "type": "uint256"
        }
      ],
      "stateMutability": "view",
      "type": "function"
    },
    {
      "inputs": [
        {
          "internalType": "address",
          "name": "sender",
          "type": "address"
        },
        {
          "internalType": "uint256",
          "name": "index",
          "type": "uint256"
        }
      ],
      "name": "returnMakerOrders",
      "outputs": [
        {
          "components": [
            {
              "internalType": "address",
              "name": "creator",
              "type": "address"
            },
            {
              "internalType": "uint256",
              "name": "postId",
              "type": "uint256"
            },
            {
              "internalType": "uint256",
              "name": "amout",
              "type": "uint256"
            },
            {
              "internalType": "uint256",
              "name": "state",
              "type": "uint256"
            }
          ],
          "internalType": "struct Unramp.Order",
          "name": "",
          "type": "tuple"
        }
      ],
      "stateMutability": "view",
      "type": "function"
    },
    {
      "inputs": [
        {
          "internalType": "address",
          "name": "sender",
          "type": "address"
        }
      ],
      "name": "returnUserLengthUserOrders",
      "outputs": [
        {
          "internalType": "uint256",
          "name": "",
          "type": "uint256"
        }
      ],
      "stateMutability": "view",
      "type": "function"
    },
    {
      "inputs": [
        {
          "internalType": "address",
          "name": "sender",
          "type": "address"
        },
        {
          "internalType": "uint256",
          "name": "index",
          "type": "uint256"
        }
      ],
      "name": "returnUserMakerStruct",
      "outputs": [
        {
          "components": [
            {
              "internalType": "address",
              "name": "creator",
              "type": "address"
            },
            {
              "internalType": "address",
              "name": "token",
              "type": "address"
            },
            {
              "internalType": "string",
              "name": "fiat",
              "type": "string"
            },
            {
              "internalType": "uint256",
              "name": "rate",
              "type": "uint256"
            },
            {
              "internalType": "uint256",
              "name": "supply",
              "type": "uint256"
            },
            {
              "internalType": "string",
              "name": "paymentMethods",
              "type": "string"
            }
          ],
          "internalType": "struct Unramp.Post",
          "name": "",
          "type": "tuple"
        }
      ],
      "stateMutability": "view",
      "type": "function"
    },
    {
      "inputs": [
        {
          "internalType": "address",
          "name": "sender",
          "type": "address"
        },
        {
          "internalType": "uint256",
          "name": "index",
          "type": "uint256"
        }
      ],
      "name": "returnUserOrders",
      "outputs": [
        {
          "components": [
            {
              "internalType": "address",
              "name": "creator",
              "type": "address"
            },
            {
              "internalType": "uint256",
              "name": "postId",
              "type": "uint256"
            },
            {
              "internalType": "uint256",
              "name": "amout",
              "type": "uint256"
            },
            {
              "internalType": "uint256",
              "name": "state",
              "type": "uint256"
            }
          ],
          "internalType": "struct Unramp.Order",
          "name": "",
          "type": "tuple"
        }
      ],
      "stateMutability": "view",
      "type": "function"
    },
    {
      "inputs": [
        {
          "internalType": "address",
          "name": "newOwner",
          "type": "address"
        }
      ],
      "name": "transferOwnership",
      "outputs": [],
      "stateMutability": "nonpayable",
      "type": "function"
    },
    {
      "inputs": [
        {
          "internalType": "address",
          "name": "newImplementation",
          "type": "address"
        }
      ],
      "name": "upgradeTo",
      "outputs": [],
      "stateMutability": "nonpayable",
      "type": "function"
    },
    {
      "inputs": [
        {
          "internalType": "address",
          "name": "newImplementation",
          "type": "address"
        },
        {
          "internalType": "bytes",
          "name": "data",
          "type": "bytes"
        }
      ],
      "name": "upgradeToAndCall",
      "outputs": [],
      "stateMutability": "payable",
      "type": "function"
    }
  ],
  "bytecode": "0x60a06040523060601b60805234801561001757600080fd5b50610020610025565b6100e5565b600054610100900460ff16156100915760405162461bcd60e51b815260206004820152602760248201527f496e697469616c697a61626c653a20636f6e747261637420697320696e697469604482015266616c697a696e6760c81b606482015260840160405180910390fd5b60005460ff90811610156100e3576000805460ff191660ff9081179091556040519081527f7f26b83ff96e1f2b6a682f133852f6798a09c465da95921460cefb38474024989060200160405180910390a15b565b60805160601c611ebd61011f600039600081816108510152818161089a0152818161093a0152818161097a0152610c0d0152611ebd6000f3fe6080604052600436106101405760003560e01c806379109baa116100b6578063a787cdf71161006f578063a787cdf71461041f578063cb58800f1461043f578063d857202514610475578063e1a22dd014610495578063f100678f146104ac578063f2fde38b146104c357600080fd5b806379109baa146102f65780638129fc1c14610316578063817282161461032b5780638da5cb5b146103615780638f1ec88f1461038957806392254d3f146103ff57600080fd5b80634f1ef286116101085780634f1ef2861461024c578063515b6ce41461025f57806352d1902d1461028c5780636d0c1a06146102a1578063715018a6146102c1578063726eaa45146102d657600080fd5b806303b769b0146101455780630d5075c3146101aa578063113146cd146101d857806321a94903146101fa5780633659cfe61461022c575b600080fd5b34801561015157600080fd5b50610165610160366004611b0b565b6104e3565b6040516101a1919081516001600160a01b0316815260208083015190820152604080830151908201526060918201519181019190915260800190565b60405180910390f35b3480156101b657600080fd5b506101ca6101c5366004611b0b565b6105a2565b6040519081526020016101a1565b3480156101e457600080fd5b506101f86101f3366004611a83565b6105d3565b005b34801561020657600080fd5b5061021a610215366004611b70565b6106f4565b6040516101a196959493929190611bf3565b34801561023857600080fd5b506101f8610247366004611a06565b610846565b6101f861025a366004611a21565b61092f565b34801561026b57600080fd5b5061027f61027a366004611b0b565b610a00565b6040516101a19190611d40565b34801561029857600080fd5b506101ca610c00565b3480156102ad57600080fd5b506101ca6102bc366004611b0b565b610cb3565b3480156102cd57600080fd5b506101f8610ccf565b3480156102e257600080fd5b506101f86102f1366004611b70565b610ce3565b34801561030257600080fd5b506101f8610311366004611b89565b610da6565b34801561032257600080fd5b506101f86110a3565b34801561033757600080fd5b506101ca610346366004611a06565b6001600160a01b0316600090815260ce602052604090205490565b34801561036d57600080fd5b506033546040516001600160a01b0390911681526020016101a1565b34801561039557600080fd5b506103d56103a4366004611b70565b60cd6020526000908152604090208054600182015460028301546003909301546001600160a01b0390921692909184565b604080516001600160a01b03909516855260208501939093529183015260608201526080016101a1565b34801561040b57600080fd5b5061016561041a366004611b0b565b6111b3565b34801561042b57600080fd5b506101ca61043a366004611b0b565b611216565b34801561044b57600080fd5b506101ca61045a366004611a06565b6001600160a01b0316600090815260cf602052604090205490565b34801561048157600080fd5b506101f8610490366004611b70565b611232565b3480156104a157600080fd5b5060cc546101ca9081565b3480156104b857600080fd5b5060c9546101ca9081565b3480156104cf57600080fd5b506101f86104de366004611a06565b61137e565b610517604051806080016040528060006001600160a01b031681526020016000815260200160008152602001600081525090565b6001600160a01b038316600090815260cf60205260408120805460cd9291908590811061054657610546611e14565b600091825260208083209091015483528281019390935260409182019020815160808101835281546001600160a01b03168152600182015493810193909352600281015491830191909152600301546060820152905092915050565b60cb60205281600052604060002081815481106105be57600080fd5b90600052602060002001600091509150505481565b6040518060c00160405280336001600160a01b03168152602001866001600160a01b031681526020018581526020018481526020018381526020018281525060ca600061061f60c95490565b81526020808201929092526040908101600020835181546001600160a01b039182166001600160a01b031991821617835585850151600184018054919093169116179055908301518051919261067d926002850192909101906118bb565b50606082015160038201556080820151600482015560a082015180516106ad9160058401916020909101906118bb565b505033600090815260cb6020526040902090506106c960c95490565b815460018101835560009283526020909220909101556106ed60c980546001019055565b5050505050565b60ca602052600090815260409020805460018201546002830180546001600160a01b0393841694929093169261072990611dd9565b80601f016020809104026020016040519081016040528092919081815260200182805461075590611dd9565b80156107a25780601f10610777576101008083540402835291602001916107a2565b820191906000526020600020905b81548152906001019060200180831161078557829003601f168201915b5050505050908060030154908060040154908060050180546107c390611dd9565b80601f01602080910402602001604051908101604052809291908181526020018280546107ef90611dd9565b801561083c5780601f106108115761010080835404028352916020019161083c565b820191906000526020600020905b81548152906001019060200180831161081f57829003601f168201915b5050505050905086565b306001600160a01b037f00000000000000000000000000000000000000000000000000000000000000001614156108985760405162461bcd60e51b815260040161088f90611c5d565b60405180910390fd5b7f00000000000000000000000000000000000000000000000000000000000000006001600160a01b03166108e1600080516020611e41833981519152546001600160a01b031690565b6001600160a01b0316146109075760405162461bcd60e51b815260040161088f90611ca9565b610910816113f4565b6040805160008082526020820190925261092c918391906113fc565b50565b306001600160a01b037f00000000000000000000000000000000000000000000000000000000000000001614156109785760405162461bcd60e51b815260040161088f90611c5d565b7f00000000000000000000000000000000000000000000000000000000000000006001600160a01b03166109c1600080516020611e41833981519152546001600160a01b031690565b6001600160a01b0316146109e75760405162461bcd60e51b815260040161088f90611ca9565b6109f0826113f4565b6109fc828260016113fc565b5050565b610a4b6040518060c0016040528060006001600160a01b0316815260200160006001600160a01b03168152602001606081526020016000815260200160008152602001606081525090565b6001600160a01b038316600090815260cb60205260408120805460ca92919085908110610a7a57610a7a611e14565b600091825260208083209091015483528281019390935260409182019020815160c08101835281546001600160a01b039081168252600183015416938101939093526002810180549192840191610ad090611dd9565b80601f0160208091040260200160405190810160405280929190818152602001828054610afc90611dd9565b8015610b495780601f10610b1e57610100808354040283529160200191610b49565b820191906000526020600020905b815481529060010190602001808311610b2c57829003601f168201915b505050505081526020016003820154815260200160048201548152602001600582018054610b7690611dd9565b80601f0160208091040260200160405190810160405280929190818152602001828054610ba290611dd9565b8015610bef5780601f10610bc457610100808354040283529160200191610bef565b820191906000526020600020905b815481529060010190602001808311610bd257829003601f168201915b505050505081525050905092915050565b6000306001600160a01b037f00000000000000000000000000000000000000000000000000000000000000001614610ca05760405162461bcd60e51b815260206004820152603860248201527f555550535570677261646561626c653a206d757374206e6f742062652063616c60448201527f6c6564207468726f7567682064656c656761746563616c6c0000000000000000606482015260840161088f565b50600080516020611e4183398151915290565b60cf60205281600052604060002081815481106105be57600080fd5b610cd761157b565b610ce160006115d5565b565b600081815260cd602090815260408083206001810154845260ca90925290912080546001600160a01b03163314610d515760405162461bcd60e51b81526020600482015260126024820152711bdddb995c881a5cc81a5b98dbdc9c9958dd60721b604482015260640161088f565b8160030154600114610d9a5760405162461bcd60e51b81526020600482015260126024820152711cdd185d19481a5cc81a5b98dbdc9c9958dd60721b604482015260640161088f565b50600260039091015550565b600082815260ca602052604090819020600181015491516370a0823160e01b8152336004820152909183916001600160a01b03909116906370a082319060240160206040518083038186803b158015610dfe57600080fd5b505afa158015610e12573d6000803e3d6000fd5b505050506040513d601f19601f82011682018060405250810190610e369190611b57565b1015610e7b5760405162461bcd60e51b8152602060048201526014602482015273496e73756666696369656e742062616c616e636560601b604482015260640161088f565b600181015460405163247bc52d60e21b8152336004820152306024820152604481018490526001600160a01b03909116906391ef14b490606401600060405180830381600087803b158015610ecf57600080fd5b505af1158015610ee3573d6000803e3d6000fd5b5050505060018101546040516323b872dd60e01b8152336004820152306024820152604481018490526000916001600160a01b0316906323b872dd90606401602060405180830381600087803b158015610f3c57600080fd5b505af1158015610f50573d6000803e3d6000fd5b505050506040513d601f19601f82011682018060405250810190610f749190611b35565b905080610fbb5760405162461bcd60e51b81526020600482015260156024820152742ab739bab1b1b2b9b9b33ab6103a3930b739b332b960591b604482015260640161088f565b60408051608081018252338152602081018690529081018490526001606082015260cd6000610fe960cc5490565b815260208082019290925260409081016000908120845181546001600160a01b0319166001600160a01b0390911617815584840151600182015584830151600282015560609094015160039094019390935533835260ce909152902060cc548154600181018355600092835260208084209091019190915583546001600160a01b0316825260cf90526040902060cc548154600181018355600092835260209092209091015561109d60cc80546001019055565b50505050565b600054610100900460ff16158080156110c35750600054600160ff909116105b806110dd5750303b1580156110dd575060005460ff166001145b6111405760405162461bcd60e51b815260206004820152602e60248201527f496e697469616c697a61626c653a20636f6e747261637420697320616c72656160448201526d191e481a5b9a5d1a585b1a5e995960921b606482015260840161088f565b6000805460ff191660011790558015611163576000805461ff0019166101001790555b61116b611627565b801561092c576000805461ff0019169055604051600181527f7f26b83ff96e1f2b6a682f133852f6798a09c465da95921460cefb38474024989060200160405180910390a150565b6111e7604051806080016040528060006001600160a01b031681526020016000815260200160008152602001600081525090565b6001600160a01b038316600090815260ce60205260408120805460cd9291908590811061054657610546611e14565b60ce60205281600052604060002081815481106105be57600080fd5b600081815260cd602090815260408083206001810154845260ca90925290912081546001600160a01b031633146112a05760405162461bcd60e51b81526020600482015260126024820152711bdddb995c881a5cc81a5b98dbdc9c9958dd60721b604482015260640161088f565b81600301546002146112e95760405162461bcd60e51b81526020600482015260126024820152711cdd185d19481a5cc81a5b98dbdc9c9958dd60721b604482015260640161088f565b60038281015560018101548154600284015460405163a9059cbb60e01b81526001600160a01b039283166004820152602481019190915291169063a9059cbb90604401602060405180830381600087803b15801561134657600080fd5b505af115801561135a573d6000803e3d6000fd5b505050506040513d601f19601f8201168201806040525081019061109d9190611b35565b61138661157b565b6001600160a01b0381166113eb5760405162461bcd60e51b815260206004820152602660248201527f4f776e61626c653a206e6577206f776e657220697320746865207a65726f206160448201526564647265737360d01b606482015260840161088f565b61092c816115d5565b61092c61157b565b7f4910fdfa16fed3260ed0e7147f7cc6da11a60208b5b9406d12a635614ffd91435460ff16156114345761142f83611656565b505050565b826001600160a01b03166352d1902d6040518163ffffffff1660e01b815260040160206040518083038186803b15801561146d57600080fd5b505afa92505050801561149d575060408051601f3d908101601f1916820190925261149a91810190611b57565b60015b6115005760405162461bcd60e51b815260206004820152602e60248201527f45524331393637557067726164653a206e657720696d706c656d656e7461746960448201526d6f6e206973206e6f74205555505360901b606482015260840161088f565b600080516020611e41833981519152811461156f5760405162461bcd60e51b815260206004820152602960248201527f45524331393637557067726164653a20756e737570706f727465642070726f786044820152681a58589b195555525160ba1b606482015260840161088f565b5061142f8383836116f2565b6033546001600160a01b03163314610ce15760405162461bcd60e51b815260206004820181905260248201527f4f776e61626c653a2063616c6c6572206973206e6f7420746865206f776e6572604482015260640161088f565b603380546001600160a01b038381166001600160a01b0319831681179093556040519116919082907f8be0079c531659141344cd1fd0a4f28419497f9722a3daafe3b4186f6b6457e090600090a35050565b600054610100900460ff1661164e5760405162461bcd60e51b815260040161088f90611cf5565b610ce1611717565b6001600160a01b0381163b6116c35760405162461bcd60e51b815260206004820152602d60248201527f455243313936373a206e657720696d706c656d656e746174696f6e206973206e60448201526c1bdd08184818dbdb9d1c9858dd609a1b606482015260840161088f565b600080516020611e4183398151915280546001600160a01b0319166001600160a01b0392909216919091179055565b6116fb83611747565b6000825111806117085750805b1561142f5761109d8383611787565b600054610100900460ff1661173e5760405162461bcd60e51b815260040161088f90611cf5565b610ce1336115d5565b61175081611656565b6040516001600160a01b038216907fbc7cd75a20ee27fd9adebab32041f755214dbc6bffa90cc0225b39da2e5c2d3b90600090a250565b60606001600160a01b0383163b6117ef5760405162461bcd60e51b815260206004820152602660248201527f416464726573733a2064656c65676174652063616c6c20746f206e6f6e2d636f6044820152651b9d1c9858dd60d21b606482015260840161088f565b600080846001600160a01b03168460405161180a9190611bd7565b600060405180830381855af49150503d8060008114611845576040519150601f19603f3d011682016040523d82523d6000602084013e61184a565b606091505b50915091506118728282604051806060016040528060278152602001611e616027913961187b565b95945050505050565b6060831561188a5750816118b4565b82511561189a5782518084602001fd5b8160405162461bcd60e51b815260040161088f9190611c4a565b9392505050565b8280546118c790611dd9565b90600052602060002090601f0160209004810192826118e9576000855561192f565b82601f1061190257805160ff191683800117855561192f565b8280016001018555821561192f579182015b8281111561192f578251825591602001919060010190611914565b5061193b92915061193f565b5090565b5b8082111561193b5760008155600101611940565b600067ffffffffffffffff8084111561196f5761196f611e2a565b604051601f8501601f19908116603f0116810190828211818310171561199757611997611e2a565b816040528093508581528686860111156119b057600080fd5b858560208301376000602087830101525050509392505050565b80356001600160a01b03811681146119e157600080fd5b919050565b600082601f8301126119f757600080fd5b6118b483833560208501611954565b600060208284031215611a1857600080fd5b6118b4826119ca565b60008060408385031215611a3457600080fd5b611a3d836119ca565b9150602083013567ffffffffffffffff811115611a5957600080fd5b8301601f81018513611a6a57600080fd5b611a7985823560208401611954565b9150509250929050565b600080600080600060a08688031215611a9b57600080fd5b611aa4866119ca565b9450602086013567ffffffffffffffff80821115611ac157600080fd5b611acd89838a016119e6565b955060408801359450606088013593506080880135915080821115611af157600080fd5b50611afe888289016119e6565b9150509295509295909350565b60008060408385031215611b1e57600080fd5b611b27836119ca565b946020939093013593505050565b600060208284031215611b4757600080fd5b815180151581146118b457600080fd5b600060208284031215611b6957600080fd5b5051919050565b600060208284031215611b8257600080fd5b5035919050565b60008060408385031215611b9c57600080fd5b50508035926020909101359150565b60008151808452611bc3816020860160208601611dad565b601f01601f19169290920160200192915050565b60008251611be9818460208701611dad565b9190910192915050565b6001600160a01b0387811682528616602082015260c060408201819052600090611c1f90830187611bab565b85606084015284608084015282810360a0840152611c3d8185611bab565b9998505050505050505050565b6020815260006118b46020830184611bab565b6020808252602c908201527f46756e6374696f6e206d7573742062652063616c6c6564207468726f7567682060408201526b19195b1959d85d1958d85b1b60a21b606082015260800190565b6020808252602c908201527f46756e6374696f6e206d7573742062652063616c6c6564207468726f7567682060408201526b6163746976652070726f787960a01b606082015260800190565b6020808252602b908201527f496e697469616c697a61626c653a20636f6e7472616374206973206e6f74206960408201526a6e697469616c697a696e6760a81b606082015260800190565b60208152600060018060a01b0380845116602084015280602085015116604084015250604083015160c06060840152611d7c60e0840182611bab565b905060608401516080840152608084015160a084015260a0840151601f198483030160c08501526118728282611bab565b60005b83811015611dc8578181015183820152602001611db0565b8381111561109d5750506000910152565b600181811c90821680611ded57607f821691505b60208210811415611e0e57634e487b7160e01b600052602260045260246000fd5b50919050565b634e487b7160e01b600052603260045260246000fd5b634e487b7160e01b600052604160045260246000fdfe360894a13ba1a3210667c828492db98dca3e2076cc3735a920a3ca505d382bbc416464726573733a206c6f772d6c6576656c2064656c65676174652063616c6c206661696c6564a2646970667358221220f43260400456652da7865157b8670a3229069ae9fd557246c432a48b8ad0c05864736f6c63430008060033",
  "linkReferences": {},
  "deployedLinkReferences": {}
}